:020000040800F2
:10000000000002205D600008AF130008BD13000867
:10001000C5130008CD130008D51300080000000028
:10002000000000000000000000000000815C0008EB
:10003000DD13000800000000D15E0008EB1300088B
:10004000AD600008AD600008AD600008AD6000085C
:10005000AD600008AD600008F7130008AD6000084F
:10006000AD600008AD600008AD600008AD6000083C
:10007000AD600008AD600008AD600008AD6000082C
:10008000AD600008AD600008AD600008AD6000081C
:10009000AD600008AD600008AD600008AD6000080C
:1000A000AD600008AD600008AD600008AD600008FC
:1000B000AD600008AD600008AD600008AD600008EC
:1000C000AD600008AD600008AD600008AD600008DC
:1000D000AD600008AD600008AD600008AD600008CC
:1000E000AD600008AD600008AD600008AD600008BC
:1000F000AD600008AD600008AD600008AD600008AC
:10010000AD600008AD600008AD600008AD6000089B
:10011000AD600008AD600008AD600008AD6000088B
:10012000AD600008AD600008AD600008AD6000087B
:10013000AD600008AD600008AD600008AD6000086B
:10014000AD600008AD600008AD600008AD6000085B
:10015000AD600008AD600008AD600008AD6000084B
:10016000AD600008AD600008AD600008AD6000083B
:10017000AD600008AD600008AD6000080000000040
:08018000AD600008AD6000084D
:1001900053B94AB9002908BF00281CBF4FF0FF31EE
:1001A0004FF0FF3000F00CB8ADF1080C6DE904CE53
:1001B00005F07EFFDDF804E0DDE9022304B07047BE
:1001C000704700BF000000000000000000000000B9
:1001D00001F0FF01102A2BDB10F0070F08D010F8F8
:1001E000013B013A8B422DD010F0070F42B3F6D1FC
:1001F000F0B441EA012141EA014122F007047FF015
:1002000000070023F0E80256083C85EA010586EA6B
:10021000010685FA47F5A3FA87F586FA47F6A5FAA7
:1002200087F68EB9EED1F0BC01F0FF0102F00702B3
:1002300032B110F8013B013A83EA010313B1F8D15E
:100240000020704701387047002D06BF354603383F
:10025000073815F0010F07D1013015F4807F02BF78
:10026000013015F4C03F0130F0BC0138704700BFC9
:100270000348044B834202D0034B03B11847704735
:10028000F0000020F0000020000000000548064BB0
:100290001B1AD90F01EBA301491002D0034B03B184
:1002A00018477047F0000020F00000200000000018
:1002B00010B5064C237843B9FFF7DAFF044B13B1AE
:1002C0000448AFF300800123237010BDF00000202C
:1002D00000000000706D000808B5054B1BB1054912
:1002E0000548AFF30080BDE80840FFF7CFBF00BF6F
:1002F00000000000F4000020706D0008002310B51D
:100300000446C0E90033C0E9043383608181436659
:10031000C2818361194608225C3000F0F4F80D4B6D
:1003200063620D4BA3620D4BE3620D4B23630D4BD8
:1003300024629C4206D003F16802944202D0D0337A
:100340009C4205D104F15800BDE8104000F04EB9C0
:1003500010BD00BF81040008A3040008DB040008EE
:10036000FF0400080C010020024A0349034800F082
:1003700069B800BF00000020ED0800081000002050
:1003800041680C4B994210B5044601D000F0AEFA1A
:10039000A168094B994202D0204600F0A7FAE16813
:1003A000064B994204D02046BDE8104000F09EBAAA
:1003B00010BD00BF0C01002074010020DC010020F2
:1003C00010B50B4B0B4C0C4A1A602046002204213E
:1003D000FFF794FF04F1680001220921FFF78EFF67
:1003E00004F1D0000222BDE810401221FFF786BFC1
:1003F000440200200C01002069030008014800F0BD
:10040000F6B800BF4D020020014800F0F1B800BF6F
:100410004D02002010B50446FFF7F0FF236A1BB120
:10042000BDE81040FFF7F0BF044B2362044B1B688C
:10043000002BF5D1FFF7C4FFF2E700BF81030008EE
:10044000440200202DE9F84307468846144600265A
:10045000D4E90195B9F1010905D52468002CF7D13B
:100460003046BDE8F883AB89012B07D9B5F90E30CA
:10047000013303D029463846C04706436835E9E7CB
:1004800010B50C46B1F90E1000F068F80028ABBFAB
:10049000636DA3891B1823F48053ACBF6365A381EC
:1004A00010BD2DE9F0411F468B89DB0505460C4642
:1004B000164605D5B1F90E100223002200F03CF8D3
:1004C000A389B4F90E1023F48053A38132463B462E
:1004D0002846BDE8F04100F053B810B50C46B1F91C
:1004E0000E1000F029F8431CA38915BF606523F4A2
:1004F000805343F48053A38118BFA38110BDB1F989
:100500000E1000F009B802440346934200D1704730
:1005100003F8011BF9E7000038B5064D0023044637
:1005200008462B6000F01AFA431C02D12B6803B175
:10053000236038BD4802002038B5074D0446084600
:10054000114600222A601A4600F010FA431C02D11C
:100550002B6803B1236038BD4802002038B5074D31
:1005600004460846114600222A601A4600F006FAA0
:10057000431C02D12B6803B1236038BD4802002020
:1005800038B5074D04460846114600222A601A462F
:1005900000F00AFA431C02D12B6803B1236038BD76
:1005A0004802002070B50D4D0D4C641BA4100026B0
:1005B000A64209D10B4D0C4C06F0DAFB641BA410CB
:1005C0000026A64205D170BD55F8043B9847013678
:1005D000EEE755F8043B98470136F2E7046F000850
:1005E000046F0008046F0008086F00087047704728
:1005F0007047000038B50546002941D051F8043C49
:100600000C1F002BB8BFE41800F0E0F81D4A136877
:1006100033B9636014602846BDE8384000F0DCB8A8
:10062000A34208D9206821188B4201BF19685B6872
:1006300009182160EDE71A465B680BB1A342FAD9AD
:1006400011685018A0420BD1206801445018834211
:100650001160E0D118685B68536008441060DAE705
:1006600002D90C232B60D6E7206821188B4204BFE7
:1006700019685B68636004BF091821605460CAE7A9
:1006800038BD00BF5402002070B50F4E0C463168D3
:10069000054611B900F052F930602146284600F0B5
:1006A0004DF9431C03D14FF0FF34204670BDC41CEC
:1006B00024F00304A042F8D0211A284600F03EF9A5
:1006C0000130F2D1EFE700BF500200202DE9F843DE
:1006D000CD1C25F0030508350C2D38BF0C25002D49
:1006E000064601DBA94204D90C2333600020BDE893
:1006F000F883DFF8D48000F069F8D8F800301C46A1
:1007000044BB29463046FFF7BFFF431C044658D17F
:10071000D8F800402746002F43D1002C4BD0236847
:100720003946304604EB030900F008F9814542D10F
:1007300021686D1A29463046FFF7A6FF01303AD0EE
:1007400023682B442360D8F800305A6862BBC8F88D
:1007500000700FE02268521B20D40B2A17D96119B0
:10076000A342256018BF5960636808BFC8F800102D
:1007700062514B60304600F02FF804F10B00231D4E
:1007800020F00700C21A1CBF1B1AA350AFE7626813
:10079000A3420CBFC8F800205A60EBE72346646808
:1007A000AEE73C467F68B6E71A465B68A342FBD1DA
:1007B00000235360DEE70C233360304600F00CF872
:1007C00094E70560D6E700BF540200200148FFF718
:1007D0000EBF00BF4C0200200148FFF709BF00BF59
:1007E0004C020020B1F90C202DE9F0411607054616
:1007F0000C4654D44B68002B02DC0B6C002B48DDFC
:10080000E66A002E45D0002312F480522F68216A38
:100810002B6030D0626DA389590705D56368D21A61
:10082000636B0BB1236CD21A0023E66A216A284657
:10083000B047431CA38906D129681D292BD82A4A11
:10084000CA40D60727D500226260D90422692260F7
:1008500004D5421C01D12B6803B96065616B2F6020
:10086000B9B104F14403994202D02846FFF7C2FE11
:10087000002363630DE001232846B0470246501C65
:10088000C9D12B68002BC6D01D2B01D0162B1ED131
:100890002F60002022E043F040031BB21BE00F69F1
:1008A000002FF6D093070E6808BF4B690F6018BF82
:1008B0000023A6EB07088B60B8F1000FE9DD216A81
:1008C000A66A43463A462846B047002808DCB4F9F1
:1008D0000C3043F04003A3814FF0FF30BDE8F081BE
:1008E0000744A8EB0008E7E70100402038B50B6992
:1008F00005460C4613B90025284638BD18B1036AD1
:100900000BB9FFF787FDB4F90C30002BF3D0626E02
:10091000D00704D4990502D4A06DFFF768FE2846DD
:100920002146FFF75FFF636EDA070546E4D4A3892B
:100930009B05E1D4A06DFFF75BFEDDE738B5064D02
:100940000023044608462B6000F020F8431C02D127
:100950002B6803B1236038BD48020020024B5822A7
:100960001A604FF0FF30704748020020024B5822B7
:100970001A604FF0FF30704748020020024B5822A7
:100980001A604FF0FF30704748020020044A0549C2
:100990001368002B08BF0B461844106018467047B8
:1009A00058020020B8240020024B58221A604FF051
:1009B000FF30704748020020FEE700BFB0B590B09E
:1009C00000AF00F055FD00F081FC012002F01CF9A1
:1009D000002002F019F9022002F016F9032002F0BB
:1009E00013F900F053FC0121002002F0D3F902F0CA
:1009F00091FB0346002B01D000F0D2FC214802F00D
:100A000015FC204BB3F900201E4BB3F902305340C4
:100A10001AB21C4BB3F9043053401BB21C4600F011
:100A20007BFD03466340184605F0A0FC164B07F11A
:100A30002C041D460FCD0FC42B68236007F12C0337
:100A40000021184604F07FFE104B07F118041D46E4
:100A50000FCD0FC42B68236007F11803002118463F
:100A600004F071FE0A4B3C1D1D460FCD0FC42B68D0
:100A700023603B1D0021184604F065FE04F05CFE77
:100A800000BFFDE760020020946D0008B06D000813
:100A9000D46D000880B500AF104B1B785A1C104B6A
:100AA00083FB02135910D317C91A0B46DB000B4402
:100AB000D11ACAB2094B1A7000F0E8FB322004F0D8
:100AC00069FE00F0F3FB642004F064FE00F0DEFB3E
:100AD000322004F05FFE00BF80BD00BF5E02002038
:100AE000398EE33880B58AB000AF7860B74B1B68A9
:100AF000FB60B74B1B7887F82230B64B1B7897F812
:100B000022209A4218D0B34A97F822301370B24B81
:100B100000221A60B14B00221A60B14B00221A70F9
:100B2000B04B01221A70B04B00221A70AF4B9622C4
:100B30001A80AF4B00221A80AE4B1B78DBB2002B21
:100B400008D0AC4B00221A70FFF7A4FFA24B002282
:100B50001A60B9E2A04B1B6801339F4A136097F8F3
:100B60002230082B00F2998201A252F823F000BF34
:100B7000950B0008CB0B0008190C0008430C00086B
:100B8000B70C0008370D0008A10D00084F0E000833
:100B9000DF0E0008904B1B68092B40F281828E4BC0
:100BA00000221A6000F072FB8C4B1B6803F00303F9
:100BB00028333B4413F81C3C184602F09DF8874B41
:100BC0001B680133854A13606AE2834B1B68092B5B
:100BD00040F26882804B00221A6000F057FB7F4B86
:100BE0001B6803F0030328333B4413F81C3C1846EE
:100BF00002F082F8794B1B68023303F003032833B9
:100C00003B4413F81C3C184602F076F8734B1B6803
:100C10000133724A136045E26F4B1B68312B40F27F
:100C200043826D4B00221A60012002F099F80020E7
:100C300002F096F8022002F093F8032002F090F8F8
:100C400032E2654B1B68072B40F23082624B002278
:100C50001A6000F01BFB624B93F9003028333B44D1
:100C600013F81C3C184602F047F85D4B93F900302E
:100C7000DAB25C4B93F90030DBB21344DBB25AB208
:100C8000574B1A70564B93F90030022B06DD544B2C
:100C900003221A70534BFF221A7007E2504B93F94C
:100CA0000030002B00F302824D4B00221A704D4B96
:100CB00001221A70FAE1484B1B680E2B40F2F881B2
:100CC000454B00221A6000F0E1FA05F07DFB034677
:100CD0001A46494BA3FB02135B09642101FB03F392
:100CE000D31A452B0BD805F06FFB034603F0030323
:100CF00028333B4413F81C3C184601F0FDFF05F077
:100D000063FB03461A463C4BA3FB02135B096421B9
:100D100001FB03F3D31A312B00F2CA8105F054FB17
:100D2000034603F0030328333B4413F81C3C1846E6
:100D300001F0E2FFBCE1284B1B68132B40F2BA81A3
:100D4000254B00221A6000F0A1FA274B1B7803F014
:100D50000103002B02D0002001F0CEFF224B1B78B4
:100D600003F00203002B02D0012001F0C5FF1E4B4F
:100D70001B7803F00403002B02D0022001F0BCFF1B
:100D8000194B1B7803F00803002B02D0032001F05D
:100D9000B3FF154B1B780133DAB2134B1A7089E19C
:100DA0000D4B1B68042B40F287810B4B00221A600D
:100DB00000F06CFA114B1B887B82B7F9123013F5E7
:100DC000E17F1DDA002001F097FF75E1E86D000872
:100DD0005E0200205C000020680200206C020020FF
:100DE000700200205D000020710200205E000020E3
:100DF000720200205D0200201F85EB51600200207E
:100E0000B7F9123013F1C80F06DA002001F074FFB1
:100E1000012001F071FF4FE1B7F91230B3F5E17F26
:100E200003DD032001F068FF46E1B7F91230C82B5B
:100E300006DD022001F060FF032001F05DFF3BE1D1
:100E4000012001F059FF022001F056FF34E19F4BD1
:100E50001B887B83B7F91A30002BB8BF5B429BB26B
:100E60007B617B69C82B0DDD7B69994AA2FB03235B
:100E70005B09C3F10A037B627B6A022B05D803235B
:100E80007B6202E04FF0FF337B62924B1B687A6A11
:100E90009A4200F213818F4B00221A6000F0F6F99B
:100EA000B7F91A30002B07DA8B4B1B68033303F0BA
:100EB0000303894A136006E0874B1B68013303F084
:100EC0000303854A1360844B1B6803F00303283334
:100ED0003B4413F81C3C184601F00EFFEEE07D4B3E
:100EE0001B68042B40F2EC807A4B00221A60774B8F
:100EF0001B883B84B7F92030002B00DA3F339B116D
:100F0000FB83764BB3F900309AB2FB8B13449BB250
:100F10001AB2724B1A80714BB3F900303C2B03DDCF
:100F20006E4B3C221A8009E06C4BB3F9003013F190
:100F30003C0F03DA694B4FF6C4721A80674BB3F962
:100F40000030002B09DD654BB3F900309BB2013B4B
:100F50009BB21AB2614B1A800DE0604BB3F90030BE
:100F6000002B08DA5D4BB3F900309BB201339BB222
:100F70001AB25A4B1A805A4BB3F900309AB2574BF7
:100F8000B3F900309BB213449BB21AB2544B1A808F
:100F9000534BB3F90030002B10DA514B00221A806A
:100FA0004E4BB3F90030DA0F13445B101BB29BB207
:100FB0005B429BB21AB2494B1A8016E0484BB3F918
:100FC0000030B3F5967F10DD454B4FF496721A80D2
:100FD000424BB3F90030DA0F13445B101BB29BB2E3
:100FE0005B429BB21AB23D4B1A8000F04FF93C4B6A
:100FF000B3F900303B4A82FB03125211DB17D31ABC
:101000001BB287F8233097F82330032B02D9032330
:1010100087F8233097F8233028333B4413F81C3CDF
:10102000184601F069FE2E4BB3F900302D4A82FBC1
:1010300003125111DA178A1A642101FB02F29B1A7A
:101040001BB2294A82FB03129210DB17D31A1BB280
:101050007B777B7F022B0ED897F82330002B0AD0AA
:1010600097F82330013B28333B4413F81C3C1846C7
:1010700001F042FE24E07B7F072B21D997F8233033
:10108000022B1DD897F82330013328333B4413F843
:101090001C3C184601F030FE12E000F0F7F810E0BA
:1010A00000BF0EE000BF0CE000BF0AE000BF08E098
:1010B00000BF06E000BF04E000BF02E000BF00E0A8
:1010C00000BF0A2004F066FB13E500BF60020020A9
:1010D00089888888680200206C0200207202002043
:1010E0005E0000201F85EB516766666680B584B0A0
:1010F00000AF78600923FB73144B1B78DBB2002B25
:101100001FD0C82004F046FB104B00221A70104B71
:101110001B785A1C0F4B83FB02135910D317C91AA3
:101120000B46DB000B44D11ACAB2094B1A70084BAC
:101130001B78FA7B9A4204D0054B1B78FB73FFF7B0
:10114000A9FC322004F026FBD6E700BF5C02002099
:101150005E020020398EE33880B58CB000AF786035
:101160000023FB850023BB8500237B8500237B6256
:10117000384802F05BF8374B1B887B84354B5B8823
:101180003B84344B9B88FB83B7F9223013F1C80FA3
:1011900003DA314BFF221A701BE0B7F92230C82B5B
:1011A00003DD2D4B01221A7013E0B7F9203013F143
:1011B000C80F03DA284BFE221A700AE0B7F9203074
:1011C000C82B03DD244B02221A7002E0224B0022BE
:1011D0001A70B7F92220B7F92E30D31ABB61B7F9CC
:1011E0002020B7F92C30D31A7B61B7F91E20B7F94C
:1011F0002A30D31A3B61BB6903FB03F27B6903FB13
:1012000003F31A443B6903FB03F31344134A82FBC1
:1012100003129211DB17D31AFB607B6A002B02D0FA
:101220007B6A013B7B62FB6840F2DC52934207D948
:101230007B6A002B04D10A4B01221A700C237B62BB
:101240007B8CFB853B8CBB85FB8B7B85322004F044
:10125000A1FA8DE76002002066020020D34D6210E3
:101260005D02002080B483B000AF0346FB80FB88A2
:10127000012B02D1044B01221A7000BF0C37BD466E
:101280005DF8047B704700BF5C02002080B500AFB2
:10129000012001F04BFD002001F048FD022001F08B
:1012A00045FD032001F042FD00BF80BD80B500AFC9
:1012B000012001F021FD002001F01EFD022001F0BF
:1012C0001BFD032001F018FD00BF80BD80B594B068
:1012D00000AF0023BB602F4B1B6C2E4A43F08053A2
:1012E00013642C4B1B6C03F08053BB60BB68002362
:1012F0007B60294B1B68284A43F480431360264BCC
:101300001B6803F480437B607B680123FB604FF420
:1013100080333B6102237B624FF48003BB6208236E
:10132000FB624FF4A8733B6302237B630723BB6319
:1013300007F10C03184600F001FC0346002B01D016
:1013400000F02EF80F23FB6302233B6400237B6431
:101350004FF4A053BB644FF48053FB6407F13C038C
:101360000521184600F062FE0346002B01D000F074
:1013700017F800F0DDF80346B3F5805F05D9074B99
:101380001B68064A43F48073136000BF5037BD46A4
:1013900080BD00BF0038024000700040003C0240A9
:1013A00080B500AF012001F0A7FC00BFFDE780B4CD
:1013B00000AF00BFBD465DF8047B704780B400AF4E
:1013C00000BFFDE780B400AF00BFFDE780B400AF11
:1013D00000BFFDE780B400AF00BFFDE780B400AF01
:1013E00000BFBD465DF8047B704780B500AF04F0D8
:1013F000E5F900BF80BD80B500AF012000F086FB9D
:1014000000BF80BD80B400AF164BD3F88830154ABA
:1014100043F47003C2F88830134B1B68124A43F040
:1014200001031360104B00229A600F4B1B680E4A99
:1014300023F0847323F4803313600B4B0B4A5A6000
:10144000094B1B68084A23F480231360064B0022D3
:10145000DA60044B4FF000629A6000BFBD465DF851
:10146000047B704700ED00E000380240103000249B
:1014700080B500AF0B4B1B680A4A43F4007313603E
:10148000084B1B68074A43F480631360032000F095
:101490002BF90F2000F010F800F006F80023184692
:1014A00080BD00BF003C024080B400AF00BFBD461D
:1014B0005DF8047B7047000080B582B000AF7860B3
:1014C000124B1A68124B1B7819464FF47A73B3FB10
:1014D000F1F3B2FBF3F3184600F03BF90346002B9F
:1014E00001D001230EE07B680F2B0AD80022796817
:1014F0004FF0FF3000F003F9064A7B6813600023C9
:1015000000E0012318460837BD4680BD600000207A
:10151000680000206400002080B400AF034B1B680B
:101520001846BD465DF8047B704700BF740200207A
:1015300080B400AF034B1B681B0C1846BD465DF81A
:10154000047B7047002004E080B485B000AF786071
:101550007B6803F00703FB600C4BDB68BB60BA6879
:101560004FF6FF031340BB60FB681A02BB681343CE
:1015700043F0BF6343F40033BB60044ABB68D360ED
:1015800000BF1437BD465DF8047B704700ED00E0F6
:1015900080B400AF044BDB681B0A03F00703184656
:1015A000BD465DF8047B704700ED00E080B483B079
:1015B00000AF0346FB7197F90730002B0BDBFB797B
:1015C00003F01F02074997F907305B09012000FA71
:1015D00002F241F8232000BF0C37BD465DF8047BC2
:1015E000704700BF00E100E080B483B000AF034665
:1015F0003960FB7197F90730002B0ADB3B68DAB2E0
:101600000C4997F907301201D2B20B4483F800233A
:101610000AE03B68DAB20849FB7903F00F03043BA8
:101620001201D2B20B441A7600BF0C37BD465DF8EA
:10163000047B704700E100E000ED00E080B489B079
:1016400000AFF860B9607A60FB6803F00703FB61E4
:10165000FB69C3F10703042B28BF0423BB61FB69AB
:101660000433062B02D9FB69033B00E000237B61B6
:101670004FF0FF32BB6902FA03F3DA43BB681A404A
:101680007B699A404FF0FF317B6901FA03F3D9433C
:101690007B680B40134318462437BD465DF8047B36
:1016A0007047000080B582B000AF78607B68013B76
:1016B000B3F1807F01D301230FE00A4A7B68013B2D
:1016C00053600F214FF0FF30FFF78EFF054B0022D4
:1016D0009A60044B07221A60002318460837BD465B
:1016E00080BD00BF10E000E080B582B000AF786040
:1016F0007868FFF729FF00BF0837BD4680BD80B579
:1017000086B000AF0346B9607A60FB7300237B614B
:10171000FFF73EFF78617A68B9687869FFF78EFF56
:10172000024697F90F3011461846FFF75DFF00BFDC
:101730001837BD4680BD80B582B000AF0346FB714F
:1017400097F907301846FFF731FF00BF0837BD464D
:1017500080BD80B582B000AF78607868FFF7A2FFE7
:10176000034618460837BD4680BD000080B489B0E6
:1017700000AF7860396000237B6100233B61002368
:10178000BB610023FB616BE10122FB6902FA03F3F9
:101790007B613B681B687A6913403B613A697B69EE
:1017A0009A4240F05A813B685B6803F00303012BC7
:1017B00005D03B685B6803F00303022B30D17B68E4
:1017C0009B68BB61FB695B00032202FA03F3DB4306
:1017D000BA691340BB613B68DA68FB695B0002FAD7
:1017E00003F3BA691343BB617B68BA699A607B688B
:1017F0005B68BB610122FB6902FA03F3DB43BA6950
:101800001340BB613B685B681B0903F00102FB6985
:1018100002FA03F3BA691343BB617B68BA695A6081
:101820003B685B6803F00303032B17D07B68DB681E
:10183000BB61FB695B00032202FA03F3DB43BA6975
:101840001340BB613B689A68FB695B0002FA03F3D3
:10185000BA691343BB617B68BA69DA603B685B684D
:1018600003F00303022B23D1FB69DA087B680832FB
:1018700053F82230BB61FB6903F007039B000F2282
:1018800002FA03F3DB43BA691340BB613B681A6990
:10189000FB6903F007039B0002FA03F3BA691343E1
:1018A000BB61FB69DA087B680832B96943F822102A
:1018B0007B681B68BB61FB695B00032202FA03F3D0
:1018C000DB43BA691340BB613B685B6803F003020A
:1018D000FB695B0002FA03F3BA691343BB617B68DF
:1018E000BA691A603B685B6803F44033002B00F070
:1018F000B4800023FB60604B5B6C5F4A43F4804321
:1019000053645D4B5B6C03F48043FB60FB685B4A94
:10191000FB699B08023352F82330BB61FB6903F07B
:1019200003039B000F2202FA03F3DB43BA6913405F
:10193000BB617B68524A93422BD07B68514A9342E9
:1019400025D07B68504A93421FD07B684F4A934210
:1019500019D07B684E4A934213D07B684D4A93421C
:101960000DD07B684C4A934207D07B684B4A934228
:1019700001D107230EE008230CE006230AE005232B
:1019800008E0042306E0032304E0022302E001232D
:1019900000E00023FA6902F0030292009340BA6962
:1019A0001343BB613549FB699B080233BA6941F8AF
:1019B00023203B4B9B68BB613B69DB43BA69134007
:1019C000BB613B685B6803F48013002B03D0BA69EA
:1019D0003B691343BB61324ABB699360304BDB68A0
:1019E000BB613B69DB43BA691340BB613B685B6821
:1019F00003F40013002B03D0BA693B691343BB61A6
:101A0000274ABB69D360264B5B68BB613B69DB43FC
:101A1000BA691340BB613B685B6803F40033002B79
:101A200003D0BA693B691343BB611D4ABB6953606C
:101A30001B4B1B68BB613B69DB43BA691340BB614D
:101A40003B685B6803F48033002B03D0BA693B69C1
:101A50001343BB61124ABB691360FB690133FB612D
:101A6000FB690F2B7FF690AE00BF00BF2437BD4649
:101A70005DF8047B704700BF003802400038014029
:101A8000000002400004024000080240000C024036
:101A9000001002400014024000180240001C0240E6
:101AA000003C014080B483B000AF78600B467B807F
:101AB00013467B707B78002B03D07A887B689A6111
:101AC00003E07B881A047B689A6100BF0C37BD462F
:101AD0005DF8047B704780B485B000AF78600B463A
:101AE0007B807B685B69FB607A88FB6813401A0423
:101AF000FB68D9437B880B401A437B689A6100BF1F
:101B00001437BD465DF8047B7047000080B582B095
:101B100000AF0346FB80084B5A69FB881340002B3B
:101B200006D0054AFB885361FB881846FFF79AFBED
:101B300000BF0837BD4680BD003C014080B586B07F
:101B400000AF78607B68002B01D1012367E27B68DE
:101B50001B6803F00103002B75D0884B9B6803F0D2
:101B60000C03042B0CD0854B9B6803F00C03082B53
:101B700012D1824B5B6803F48003B3F5800F0BD165
:101B80007E4B1B6803F40033002B5BD07B685B68E3
:101B9000002B57D1012342E27B685B68B3F5803F9D
:101BA00006D1764B1B68754A43F4803313601DE001
:101BB0007B685B68B3F5A02F0CD1704B1B686F4A34
:101BC00043F4802313606D4B1B686C4A43F48033ED
:101BD00013600BE0694B1B68684A23F48033136081
:101BE000664B1B68654A23F4802313607B685B683F
:101BF000002B13D0FFF790FC386108E0FFF78CFC56
:101C000002463B69D31A642B01D9032307E25B4BDD
:101C10001B6803F40033002BF0D014E0FFF77CFCCA
:101C2000386108E0FFF778FC02463B69D31A642B61
:101C300001D90323F3E1514B1B6803F40033002B5C
:101C4000F0D100E000BF7B681B6803F00203002BAB
:101C500063D04A4B9B6803F00C03002B0BD0474B1F
:101C60009B6803F00C03082B1CD1444B5B6803F406
:101C70008003002B16D1414B1B6803F00203002B9D
:101C800005D07B68DB68012B01D00123C7E13B4B0A
:101C90001B6823F0F8027B681B69DB00374913439C
:101CA0000B603AE07B68DB68002B20D0344B0122CC
:101CB0001A60FFF731FC386108E0FFF72DFC02469F
:101CC0003B69D31A022B01D90323A8E12B4B1B68D4
:101CD00003F00203002BF0D0284B1B6823F0F8021E
:101CE0007B681B69DB00254913430B6015E0244B1F
:101CF00000221A60FFF710FC386108E0FFF70CFCC7
:101D000002463B69D31A022B01D9032387E11B4BFF
:101D10001B6803F00203002BF0D17B681B6803F003
:101D20000803002B36D07B685B69002B16D0154B5F
:101D300001221A60FFF7F0FB386108E0FFF7ECFBC7
:101D400002463B69D31A022B01D9032367E10B4BEF
:101D50005B6F03F00203002BF0D01BE0094B002265
:101D60001A60FFF7D9FB38610EE0FFF7D5FB02469A
:101D70003B69D31A022B07D9032350E100380240F4
:101D800000004742800E4742884B5B6F03F002031E
:101D9000002BEAD17B681B6803F00403002B00F0E2
:101DA00097800023FB75814B1B6C03F08053002B45
:101DB0000FD10023BB607D4B1B6C7C4A43F08053EA
:101DC00013647A4B1B6C03F08053BB60BB68012328
:101DD000FB75774B1B6803F48073002B18D1744B91
:101DE0001B68734A43F480731360FFF795FB3861F7
:101DF00008E0FFF791FB02463B69D31A022B01D999
:101E000003230CE16A4B1B6803F48073002BF0D0B2
:101E10007B689B68012B06D1644B1B6F634A43F0C0
:101E2000010313671CE07B689B68052B0CD15F4B9B
:101E30001B6F5E4A43F0040313675C4B1B6F5B4AE6
:101E400043F0010313670BE0584B1B6F574A23F015
:101E500001031367554B1B6F544A23F004031367A8
:101E60007B689B68002B15D0FFF756FB38610AE0B2
:101E7000FFF752FB02463B69D31A41F28832934284
:101E800001D90323CBE0494B1B6F03F00203002B66
:101E9000EED014E0FFF740FB38610AE0FFF73CFBAF
:101EA00002463B69D31A41F28832934201D9032397
:101EB000B5E03E4B1B6F03F00203002BEED1FB7D20
:101EC000012B05D1394B1B6C384A23F08053136426
:101ED0007B689B69002B00F0A180344B9B6803F06A
:101EE0000C03082B5CD07B689B69022B41D1314BE2
:101EF00000221A60FFF710FB386108E0FFF70CFBC7
:101F000002463B69D31A022B01D9032387E0274BF2
:101F10001B6803F00073002BF0D17B68DA697B68E3
:101F20001B6A1A437B685B6A9B011A437B689B6A46
:101F30005B08013B1B041A437B68DB6A1B061B49D9
:101F400013434B601B4B01221A60FFF7E5FA38611F
:101F500008E0FFF7E1FA02463B69D31A022B01D9E8
:101F600003235CE0114B1B6803F00073002BF0D0DF
:101F700054E0104B00221A60FFF7CEFA386108E0F7
:101F8000FFF7CAFA02463B69D31A022B01D9032391
:101F900045E0064B1B6803F00073002BF0D13DE0D9
:101FA0007B689B69012B07D1012338E00038024090
:101FB00000700040600047421B4B5B68FB607B6821
:101FC0009B69012B28D0FB6803F480027B68DB69E6
:101FD0009A4221D1FB6803F03F027B681B6A9A4258
:101FE0001AD1FA6847F6C07313407A68526A9201B0
:101FF000934211D1FB6803F440327B689B6A5B0813
:10200000013B1B049A4207D1FB6803F070627B68B6
:10201000DB6A1B069A4201D0012300E00023184628
:102020001837BD4680BD00BF0038024080B584B07F
:1020300000AF786039607B68002B01D10123CCE0D0
:10204000684B1B6803F007033A689A420CD9654B4A
:102050003A68D2B21A70634B1B6803F007033A6800
:102060009A4201D00123B8E07B681B6803F00203A9
:10207000002B20D07B681B6803F00403002B05D0E5
:10208000594B9B68584A43F4E05393607B681B6844
:1020900003F00803002B05D0534B9B68524A43F4CE
:1020A00060439360504B9B6823F0F0027B689B6811
:1020B0004D4913438B607B681B6803F00103002BC1
:1020C00044D07B685B68012B07D1474B1B6803F446
:1020D0000033002B19D101237FE07B685B68022B62
:1020E00003D07B685B68032B07D13F4B1B6803F071
:1020F0000073002B09D101236FE03B4B1B6803F0F9
:102100000203002B01D1012367E0374B9B6823F0CA
:1021100003027B685B68344913438B60FFF7FCF96B
:10212000F8600AE0FFF7F8F90246FB68D31A41F2BB
:102130008832934201D903234FE02B4B9B6803F075
:102140000C027B685B689B009A42EBD1254B1B68B5
:1021500003F007033A689A420CD2224B3A68D2B293
:102160001A70204B1B6803F007033A689A4201D0AB
:10217000012332E07B681B6803F00403002B08D0C6
:10218000194B9B6823F4E0527B68DB6816491343C4
:102190008B607B681B6803F00803002B09D0124B8F
:1021A0009B6823F460427B681B69DB000E49134384
:1021B0008B6000F021F802460B4B9B681B0903F073
:1021C0000F030A49CB5C22FA03F3094A1360094B57
:1021D0001B681846FFF770F9002318461037BD46F4
:1021E00080BD00BF003C024000380240046E000881
:1021F00060000020640000202DE9B04F94B000AFD3
:1022000000237B640023FB6400233B640023BB6446
:10221000794B9B6803F00C03082B0DD0082B00F2C0
:10222000E180002B02D0042B03D0DBE0734BBB64B6
:10223000DBE0734BBB64D8E06F4B5B6803F03F039C
:102240007B646D4B5B6803F48003002B63D06A4BA7
:102250005B689B090022BB63FA63BB6BC3F3080393
:102260003B6300237B63D7E90C4522462B464FF0A6
:1022700000004FF00001590141EAD26150010246CD
:102280000B462146511A3961294663EB01037B61F4
:102290004FF000024FF00003D7E904AB59468B0121
:1022A000514643EA916351468A015146B2EB010817
:1022B000594663EB01094FF000024FF000034FEA6B
:1022C000C90343EA58734FEAC80290469946234629
:1022D00018EB0303BB602B4649EB0303FB604FF095
:1022E00000024FF00003D7E9024529464B02214680
:1022F00043EAD15321464A02104619467B6C00221C
:10230000BB62FA62D7E90A23FDF742FF02460B4699
:102310001346FB6458E0384B5B689B090022184663
:102320001146C0F308033B6200237B62D7E90889AA
:1023300042464B464FF000004FF00001590141EA80
:10234000D261500102460B464146B2EB010A4946B2
:1023500063EB010B4FF000024FF000034FEA8B13C9
:1023600043EA9A634FEA8A12B2EB0A0463EB0B0565
:102370004FF000024FF00003EB0043EA5473E20019
:1023800014461D464346E3183B604B4645EB0303AA
:102390007B604FF000024FF00003D7E9004529466B
:1023A0008B02214643EA915321468A021046194680
:1023B0007B6C0022BB61FA61D7E90623FDF7E8FEDA
:1023C00002460B461346FB640B4B5B681B0C03F089
:1023D000030301335B003B64FA6C3B6CB2FBF3F329
:1023E000BB6402E0054BBB6400BFBB6C18465037B2
:1023F000BD46BDE8B08F00BF003802400024F400A5
:1024000000127A0080B582B000AF78607B68002B44
:1024100001D1012383E07B685B6A002B08D17B68D4
:102420005B68B3F5827F09D07B680022DA6105E042
:102430007B6800221A617B6800225A617B6893F8EE
:102440005130DBB2002B06D17B68002283F850208C
:10245000786800F090F87B68022283F851207B684E
:102460001B681A687B681B6822F040021A607B6850
:102470005B6803F482727B689B6803F404431A432D
:102480007B68DB6803F400631A437B681B6903F015
:1024900002031A437B685B6903F001031A437B68FC
:1024A0009B6903F400731A437B68DB6903F038030C
:1024B0001A437B681B6A03F0800342EA03017B68CE
:1024C0009B6A03F400527B681B680A431A607B68AE
:1024D0009B691B0C03F004017B685B6A03F010022C
:1024E0007B681B680A435A607B689B6AB3F5005F90
:1024F00005D17B68DA6A7B681B6892B21A617B68D7
:102500001B68DA697B681B6822F40062DA617B6809
:1025100000225A657B68012283F851200023184667
:102520000837BD4680BD80B582B000AF78607B685B
:10253000002B01D101231AE07B68022283F851208D
:102540007B681B681A687B681B6822F040021A606F
:10255000786800F01AF87B6800225A657B680022D0
:1025600083F851207B68002283F85020002318460E
:102570000837BD4680BD80B483B000AF786000BF2F
:102580000C37BD465DF8047B704780B483B000AF64
:10259000786000BF0C37BD465DF8047B704780B59E
:1025A0008EB002AFF860B9607A607B800023BB61B7
:1025B0000123FB62FEF7B0FFB862FB6893F851306D
:1025C00087F82730FB685B683B627B88FB8397F862
:1025D0002730012B0DD03B6AB3F5827F07D1FB6812
:1025E0009B68002B03D197F82730042B01D00223DE
:1025F0001CE2BB68002B05D07B68002B02D07B88D7
:10260000002B01D1012311E2FB6893F85030012B1C
:1026100001D102230AE2FB68012283F85020FB6803
:1026200093F85130DBB2042B03D0FB68052283F80A
:102630005120FB6800225A65FB687A689A63FB6840
:102640007A88DA87FB687A889A87FB68BA681A639F
:10265000FB687A88DA86FB687A889A86FB680022AB
:102660001A64FB6800225A64FB689B6AB3F5005F3A
:102670000FD1FB681B681A68FB681B6822F40052C4
:102680001A60FB681B681A68FB681B6842F40052FA
:102690001A60FB681B681B6803F04003402B07D0DF
:1026A000FB681B681A68FB681B6842F040021A60EE
:1026B000FB68DB68B3F5006F40F0A480FB685B68E3
:1026C000002B03D0FB8B012B40F09180FB681B6B30
:1026D0001A88FB681B68DA60FB681B6B9A1CFB6836
:1026E0001A63FB68DB8E9BB2013B9AB2FB68DA8609
:1026F000FB68DB8E9BB2002B79D1FB689B6AB3F53C
:10270000005F74D1FB681B681A68FB681B6842F4A1
:1027100080521A606BE0FB681B689B6803F0020341
:10272000022B2DD1FB68DB8E9BB2002B28D0FB6ADD
:10273000012B25D1FB681B6B1A88FB681B68DA60CC
:10274000FB681B6B9A1CFB681A63FB68DB8E9BB2F1
:10275000013B9AB2FB68DA860023FB62FB68DB8EE2
:102760009BB2002B0CD1FB689B6AB3F5005F07D1CD
:10277000FB681B681A68FB681B6842F480521A6089
:10278000FB681B689B6803F00103012B19D1FB68F0
:10279000DB8F9BB2002B14D0FB681B68DA68FB68E8
:1027A0009B6B92B21A80FB689B6B9A1CFB689A63C6
:1027B000FB68DB8F9BB2013B9AB2FB68DA8701238F
:1027C000FB62FEF7A9FE0246BB6AD31ABA6B9A42B5
:1027D0000DD8BB6BB3F1FF3F09D0FB68012283F832
:1027E0005120FB68002283F8502003231EE1FB6880
:1027F000DB8E9BB2002B8ED1FB68DB8F9BB2002B54
:1028000089D1A7E0FB685B68002B03D0FB8B012B11
:1028100040F09680FB681A6BFB681B680C331278DB
:102820001A70FB681B6B5A1CFB681A63FB68DB8E13
:102830009BB2013B9AB2FB68DA86FB68DB8E9BB2E7
:10284000002B7DD1FB689B6AB3F5005F78D1FB68F4
:102850001B681A68FB681B6842F480521A606FE0BC
:10286000FB681B689B6803F00203022B2ED1FB68F8
:10287000DB8E9BB2002B29D0FB6A012B26D1FB6893
:102880001A6BFB681B680C3312781A70FB681B6BA1
:102890005A1CFB681A63FB68DB8E9BB2013B9AB241
:1028A000FB68DA860023FB62FB68DB8E9BB2002BA1
:1028B0000CD1FB689B6AB3F5005F07D1FB681B680E
:1028C0001A68FB681B6842F480521A60FB681B6838
:1028D0009B6803F00103012B19D1FB68DB8F9BB2CE
:1028E000002B14D0FB681B68DA68FB689B6BD2B2C4
:1028F0001A70FB689B6B5A1CFB689A63FB68DB8F42
:102900009BB2013B9AB2FB68DA870123FB62FEF7B8
:1029100003FE0246BB6AD31ABA6B9A4203D8BB6B5A
:10292000B3F1FF3F02D1BB6B002B09D1FB68012241
:1029300083F85120FB68002283F85020032375E0C0
:10294000FB68DB8E9BB2002B8AD1FB68DB8F9BB2CE
:10295000002B85D1FB689B6AB3F5005F1FD1BB6A72
:102960000093BB6B01220121F86800F071F8034667
:10297000002B0FD0FB685B6D43F00202FB685A65C9
:10298000FB68012283F85120FB68002283F8502065
:1029900003234BE0FB681B68DB68BB61BB69FB681A
:1029A0001B689B6803F01003102B10D1FB685B6D54
:1029B00043F00202FB685A65FB681B684FF6EF7232
:1029C0009A60FB68002283F8502001232EE0BA6A47
:1029D000B96BF86800F0C4F80346002B08D0FB6818
:1029E00020225A65FB68002283F8502001231DE055
:1029F000FB689B68002B0AD100237B61FB681B6886
:102A0000DB687B61FB681B689B687B617B69FB689B
:102A1000012283F85120FB68002283F85020FB68D4
:102A20005B6D002B01D0012300E0002318463037F6
:102A3000BD4680BD80B483B000AF78607B6893F8FA
:102A40005130DBB218460C37BD465DF8047B704749
:102A500080B588B000AFF860B9603B601346FB7189
:102A6000FEF75AFD0246BB6A9B1A3A681344FB61A3
:102A7000FEF752FDB861394B1B685B011B0DFA690B
:102A800002FB03F37B6155E03B68B3F1FF3F51D09C
:102A9000FEF742FD0246BB69D31AFA699A4202D98F
:102AA000FB69002B3DD1FB681B685A68FB681B68FB
:102AB00022F0E0025A60FB685B68B3F5827F11D1B7
:102AC000FB689B68B3F5004F04D0FB689B68B3F5C7
:102AD000806F07D1FB681B681A68FB681B6822F0CF
:102AE00040021A60FB689B6AB3F5005F0FD1FB6878
:102AF0001B681A68FB681B6822F400521A60FB68A6
:102B00001B681A68FB681B6842F400521A60FB6875
:102B1000012283F85120FB68002283F85020032310
:102B200018E07B69002B02D10023FB6102E07B6986
:102B3000013B7B61FB681B689A68BB681340BA68FD
:102B40009A420CBF01230023DBB21A46FB799A425A
:102B50009AD1002318462037BD4680BD6000002072
:102B600080B588B002AFF860B9607A607B68009386
:102B7000BB6801220221F868FFF76AFF0346002BB9
:102B800007D0FB685B6D43F02002FB685A650323A6
:102B900032E01B4B1B681B4AA2FB03235B0D4FF467
:102BA0007A7202FB03F37B61FB685B68B3F5827F9B
:102BB00012D17B680093BB6800228021F868FFF780
:102BC00047FF0346002B16D0FB685B6D43F02002E5
:102BD000FB685A6503230FE07B69002B0AD07B69F1
:102BE000013B7B61FB681B689B6803F08003802BC3
:102BF000F2D000E000BF002318461837BD4680BD64
:102C000060000020819F5E1680B58CB000AF034647
:102C1000FB71FB79002B0ED10023BB61334B1B6B87
:102C2000324A43F008031363304B1B6B03F0080375
:102C3000BB61BB6934E0FB79012B0ED100237B61C2
:102C40002A4B1B6B294A43F008031363274B1B6B6A
:102C500003F008037B617B6922E0FB79022B0ED134
:102C600000233B61214B1B6B204A43F00803136395
:102C70001E4B1B6B03F008033B613B6910E0FB79C3
:102C8000032B0DD10023FB60184B1B6B174A43F03D
:102C900008031363154B1B6B03F00803FB60FB6811
:102CA000FB79134A32F81330FB6101233B620123A5
:102CB0007B620223BB62FB790E4A52F8233007F194
:102CC0001C0211461846FEF751FDFB79094A52F8DD
:102CD0002300FB79064A32F8133000221946FEF72A
:102CE000E1FE00BF3037BD4680BD00BF0038024066
:102CF000146E00086C00002080B582B000AF03465F
:102D0000FB71FB79074A52F82300FB79064A32F837
:102D1000133001221946FEF7C5FE00BF0837BD4635
:102D200080BD00BF6C000020146E000880B582B02A
:102D300000AF0346FB71FB79074A52F82300FB7989
:102D4000064A32F8133000221946FEF7ABFE00BFE8
:102D50000837BD4680BD00BF6C000020146E00081F
:102D600080B582B000AF0346FB71FB79074A52F889
:102D70002320FB79064931F8133019461046FEF737
:102D8000AAFE00BF0837BD4680BD00BF6C00002012
:102D9000146E000880B588B000AF03460A46FB7188
:102DA0001346BB71FB79002B0DD10023BB60234B75
:102DB0001B6B224A43F001031363204B1B6B03F090
:102DC0000103BB60BB68BB79002B11D10123FB6001
:102DD00000233B6100237B610223BB61FB79184A1E
:102DE00052F8233007F10C0211461846FEF7BEFCDC
:102DF000BB79012B1ED10123FB6000237B610223E1
:102E0000BB614FF488133B61FB790D4A52F82330C4
:102E100007F10C0211461846FEF7A8FC06235BB228
:102E200000220F211846FEF76AFC06235BB2184603
:102E3000FEF781FC00BF2037BD4680BD0038024050
:102E40007C00002080B500AF1948FFF7F3FD034672
:102E5000002B2AD1164B174A1A60154B1822DA613B
:102E6000134B00229A60124B00225A61104B002231
:102E70001A610F4B00229A620D4B0722DA620C4B4B
:102E80000022DA600A4B00221A62094B4FF40072EA
:102E90009A61074B00225A62054B4FF482725A60C6
:102EA00000F036F80248FFF7ADFA00BF80BD00BF62
:102EB000780200200030014080B586B002AF0346A2
:102EC000FB710023FB730A4B1B6807F10F02F91D0E
:102ED000009301230748FFF762FB0346002B01D054
:102EE00000F00AF8FB7B18461037BD4680BD00BFD6
:102EF000800000207802002080B500AF0348FFF773
:102F000012FBFFF79FFF00BF80BD00BF78020020CB
:102F100080B588B000AF0023BB60174B5B6C164ACE
:102F200043F480535364144B5B6C03F48053BB60D5
:102F3000BB6800237B60104B1B6B0F4A43F00103FF
:102F400013630D4B1B6B03F001037B607B68E02375
:102F5000FB6002233B6102237B610123BB610523EC
:102F6000FB6107F10C0319460448FEF7FFFB00BFA5
:102F70002037BD4680BD00BF00380240000002403F
:102F800080B586B000AF00233B60124B1B6B114A2B
:102F900043F0100313630F4B1B6B03F010033B60F4
:102FA0003B6808237B600123BB600023FB60012397
:102FB0003B613B1D19460848FEF7D8FB012208215A
:102FC0000548FEF76FFDFFF73DFF00BF1837BD4610
:102FD00080BD00BF003802400010024080B586B0BE
:102FE00000AF00233B60134B1B6B124A43F01003EE
:102FF0001363104B1B6B03F010033B603B68022311
:103000007B604FF48813BB6002233B610023FB60AD
:103010003B1D19460848FEF7A9FB00220F21072097
:10302000FEF76DFB0720FEF786FB00BF1837BD4695
:1030300080BD00BF003802400010024080B582B061
:1030400000AF78600B46FB7013463B803B88012B3A
:1030500003D9FB7843F04003FB70002208210F489E
:10306000FEF720FDFB781846FFF726FF0AE07B6895
:103070001B781846FFF720FF3B88013B3B807B68AD
:1030800001337B603B88002BF1D1012208210348EA
:10309000FEF708FD00BF0837BD4680BD00100240A6
:1030A00080B582B000AF78600B46FB7013463B8062
:1030B0003B88012B04D9FB7863F03F03FB7003E0EE
:1030C000FB7863F07F03FB70002208211048FEF7B5
:1030D000E9FCFB781846FFF7EFFE0CE00020FFF755
:1030E000EBFE03461A467B681A703B88013B3B8027
:1030F0007B6801337B603B88002BEFD101220821E4
:103100000348FEF7CFFC00BF0837BD4680BD00BFB7
:103110000010024080B586B000AF0123FB7500238C
:10312000BB8200233B7200237B720023BB723C4BAB
:103130009B68984703463B2B38D13A4B384A1A6074
:1031400040233B7300237B730723BB730023FB7374
:1031500000233B747A7B3B7B1343DAB2FB7B134344
:10316000DAB23B7C1343DAB2BB7B1343DBB2BB82E4
:103170002C4B1B681B68BA8A1046984720233B7269
:1031800001237B720C23BB723A7A7B7A1343DAB247
:10319000BB7A1343DBB2BB82224B1B689B6ABA8AA1
:1031A000D2B2104698470023FB7533E01E4B9B6854
:1031B000984703463F2B2BD11A4B1B4A1A606023BA
:1031C0003B7007237B700023BB700023FB70002340
:1031D0003B7100237B713A787B781343DBB2BB826F
:1031E000BA78FB781343DAB23B791343DAB27B79CE
:1031F0001343DBB21B029AB2BB8A1343BB82094B57
:103200001B681B68BA8A104698470023FB7501E0CB
:103210000123FB75FB7D18461837BD4680BD00BFF6
:1032200084000020D0020020B800002080B584B0C7
:1032300000AF78600023FB81104B1B681B6B002BD9
:1032400018D00E4B1B681B6B786898470B4B1B689C
:103250000B4A93420ED17B681B88FB817B68B3F9D4
:1032600002207B681A80FB895B429AB27B6802333A
:1032700012B21A8000BF1037BD4680BDD0020020B8
:103280008400002080B584B000AF0346FB8000239B
:10329000FB73FFF775FEFB88DBB2FB7307F10F03CF
:1032A000012220211846FFF7C9FE00BF1037BD4696
:1032B00080BD80B400AF00BFBD465DF8047B7047A1
:1032C00080B582B000AF0023FB71FFF759FEFB1DF4
:1032D00001220F211846FFF7E3FEFB791846083755
:1032E000BD4680BD80B584B000AF0346FB710023AE
:1032F000FB7307F10F03012221211846FFF7D0FECF
:10330000FB7B23F02F03DBB2FB73FA7BFB791343C8
:10331000DBB2FB7307F10F03012221211846FFF7EF
:103320008DFE00BF1037BD4680BD80B584B000AFB4
:1033300078600023FB7307F10F0301223821184640
:10334000FFF7AEFE7B681A787B685B781343DAB2CE
:103350007B689B781343DBB2FB7307F10F030122F9
:1033600038211846FFF76AFE00BF1037BD4680BD02
:1033700080B582B000AF0023FB71FFF72FFE402322
:103380003B7110237B712023BB713B1D1846FFF757
:10339000CCFF3F23FB71FB1D012222211846FFF7C2
:1033A0004DFE5023FB71FB1D012238211846FFF70B
:1033B00045FEAA23FB71FB1D01223B211846FFF7A6
:1033C0003DFE0A23FB71FB1D01223C211846FFF73D
:1033D00035FE4C23FB71FB1D012230211846FFF7FF
:1033E0002DFE0323FB71FB1D01223D211846FFF733
:1033F00025FE7F23FB71FB1D01223E211846FFF7AE
:103400001DFE7F23FB71FB1D01223F211846FFF7A4
:1034100015FE00BF0837BD4680BD80B584B000AF43
:103420000023FB71FB1D012239211846FFF738FEEE
:1034300007F10803062227211846FFF731FE00BFD7
:103440001037BD4680BD80B582B000AFFB1D0122A4
:1034500021211846FFF724FEFB7943F04003DBB23D
:10346000FB71FB1D012221211846FFF7E7FD00BF7C
:103470000837BD4680BD80B588B000AF78601223A4
:10348000FB770023BB7707F10F03012220211846A9
:10349000FFF706FE07F11803062229211846FFF759
:1034A000FFFD0023BB770EE0BB7F5B0020333B4476
:1034B00013F9082CBB7F5B0020333B4423F8102C0E
:1034C000BB7F0133BB77BB7F022BEDD9FB7B03F0C6
:1034D0002003002B02D0202B03D005E01223FB7722
:1034E00002E04823FB7700BF0023BB7714E0BB7FDB
:1034F0005B0020333B4433F9103C9AB2FB7F9BB214
:1035000012FB03F399B2BB7F5B007A6813440AB2E3
:103510001A80BB7F0133BB77BB7F022BE7D900BF8B
:1035200000BF2037BD4680BD80B584B000AF0346E4
:10353000FB800023FB73FFF723FDFB88DBB2FB73EB
:1035400007F10F03012220211846FFF777FDFB88C2
:103550001B0A9BB2DBB2FB7307F10F03012224218C
:103560001846FFF76BFD00BF1037BD4680BD80B425
:1035700000AF00BFBD465DF8047B704780B582B0E8
:1035800000AF0023FB71FFF7FBFCFB1D01220F21A5
:103590001846FFF785FDFB7918460837BD4680BD04
:1035A00080B584B000AF78600023FB737B685A78E5
:1035B0007B681B781343DAB27B689B781343DBB2DA
:1035C000FB7307F10F03012223211846FFF736FD95
:1035D0007B68DA787B681B791343DBB2FB7307F1F6
:1035E0000F03012221211846FFF728FD7B685A7935
:1035F0007B689B791343DBB2FB7307F10F03012256
:1036000022211846FFF71AFD00BF1037BD4680BDC6
:1036100080B582B000AF0023FB71FFF7DFFC002311
:103620007B7000233B704023BB700023FB700123A1
:103630007B710023BB713B461846FFF7B1FF0323A4
:10364000FB71FB1D012252211846FFF7F7FCC8232E
:10365000FB71FB1D012254211846FFF7EFFC4523A7
:10366000FB71FB1D012256211846FFF7E7FCFC23E6
:10367000FB71FB1D01225A211846FFF7DFFCA12335
:10368000FB71FB1D01225B211846FFF7D7FC0123CC
:10369000FB71FB1D01225C211846FFF7CFFCFB1DCF
:1036A00001227B211846FFF7C9FCFB1D0122602186
:1036B0001846FFF7C3FC0623FB71FB1D01226121A5
:1036C0001846FFF7BBFC2823FB71FB1D012262217A
:1036D0001846FFF7B3FC1123FB71FB1D0122632188
:1036E0001846FFF7ABFC00BF0837BD4680BD80B56C
:1036F00082B000AFFB1D012225211846FFF7D0FC48
:10370000FB7963F07F03DBB2FB71FB1D01222521F6
:103710001846FFF793FC00BF0837BD4680BD000088
:1037200080B588B000AF78600023FB77644BBB6145
:103730004FF000037B6107F10B030122242118469F
:10374000FFF7AEFC07F10C03012228211846FFF712
:10375000A7FC07F10C030133012229211846FFF7CA
:103760009FFC07F10C03023301222A211846FFF7C0
:1037700097FC07F10C03033301222B211846FFF7B6
:103780008FFC07F10C03043301222C211846FFF7AC
:1037900087FC07F10C03053301222D211846FFF7A2
:1037A0007FFCFB7A03F03803202B54D801A252F897
:1037B00023F000BF39380008573800085738000890
:1037C000573800085738000857380008573800089D
:1037D000573800083F3800085738000857380008A5
:1037E000573800085738000857380008573800087D
:1037F000573800084538000857380008573800087F
:10380000573800085738000857380008573800085C
:10381000573800084B380008573800085738000858
:10382000573800085738000857380008573800083C
:103830005738000851380008214BBB610CE0214B80
:10384000BB6109E0204BBB6106E0204BBB6103E09C
:103850001F4BBB6100E000BF0023FB7727E0FB7F2D
:103860005B00013320333B4413F9143C1B02FA7F05
:10387000520020323A4412F9142C134407EE903AC5
:10388000F8EEE77A97ED067A67EE277AC7ED057AC4
:10389000FB7F5B007A681344D7ED057AFDEEE77A8B
:1038A00017EE902A12B21A80FB7F0133FB77FB7F61
:1038B000022BD4D900BF00BF2037BD4680BD00BF5A
:1038C0008FC2753D8FC2F53DEC51383E8FC2753EBB
:1038D00048E13A3F80B483B000AF78607B6803F181
:1038E00008027B685A607B684FF0FF329A607B6801
:1038F00003F108027B68DA607B6803F108027B68E9
:103900001A617B6800221A6000BF0C37BD465DF863
:10391000047B704780B483B000AF78607B6800227E
:103920001A6100BF0C37BD465DF8047B704780B458
:1039300085B000AF786039607B685B68FB603B688E
:10394000FA685A60FB689A683B689A60FB689B68F3
:103950003A685A60FB683A689A603B687A681A610C
:103960007B681B685A1C7B681A6000BF1437BD4611
:103970005DF8047B704780B485B000AF7860396033
:103980003B681B68BB60BB68B3F1FF3F03D17B683A
:103990001B69FB600CE07B680833FB6002E0FB689E
:1039A0005B68FB60FB685B681B68BA689A42F6D28A
:1039B000FB685A683B685A603B685B683A689A6083
:1039C0003B68FA689A60FB683A685A603B687A68B4
:1039D0001A617B681B685A1C7B681A6000BF143729
:1039E000BD465DF8047B704780B485B000AF786059
:1039F0007B681B69FB607B685B687A6892689A6089
:103A00007B689B687A6852685A60FB685B687A6872
:103A10009A4203D17B689A68FB685A607B680022EF
:103A20001A61FB681B685A1EFB681A60FB681B68FA
:103A300018461437BD465DF8047B704780B584B0E6
:103A400000AF786039607B68FB60FB68002B0BD1AE
:103A50004FF0500383F31188BFF36F8FBFF34F8F85
:103A6000BB6000BF00BFFDE702F0D6F9FB681A6833
:103A7000FB68DB6BF968096C01FB03F31A44FB6814
:103A80009A60FB6800229A63FB681A68FB685A60B8
:103A9000FB681A68FB68DB6B013BF968096C01FB8A
:103AA00003F31A44FB68DA60FB68FF2283F84420C2
:103AB000FB68FF2283F845203B68002B14D1FB688C
:103AC0001B69002B1AD0FB681033184601F052F81E
:103AD0000346002B12D00D4B4FF080521A60BFF3FB
:103AE0004F8FBFF36F8F09E0FB6810331846FFF765
:103AF000F1FEFB6824331846FFF7ECFE02F0BEF936
:103B0000012318461037BD4680BD00BF04ED00E01C
:103B100080B58AB002AFF860B9601346FB71FB68EC
:103B2000002B0BD14FF0500383F31188BFF36F8F3D
:103B3000BFF34F8F3B6100BF00BFFDE7FB68BA6872
:103B400002FB03F3FB61FB695033184601F042FEB0
:103B5000B861BB69002B0DD0BB697B617B695033B9
:103B60007B61FA79BB69009313467A69B968F86892
:103B700000F005F8BB6918462037BD4680BD80B50A
:103B800084B000AFF860B9607A60FB70BB68002B4E
:103B900003D1BB69BA691A6002E0BB697A681A602E
:103BA000BB69FA68DA63BB69BA681A640121B8694B
:103BB000FFF744FFBB69FA7883F84C2000BF103749
:103BC000BD4680BD80B58EB000AFF860B9607A6048
:103BD0003B6000237B63FB683B633B6B002B0BD19B
:103BE0004FF0500383F31188BFF36F8FBFF34F8FF4
:103BF000BB6200BF00BFFDE7BB68002B03D13B6B7E
:103C00001B6C002B01D1012300E00023002B0BD102
:103C10004FF0500383F31188BFF36F8FBFF34F8FC3
:103C20007B6200BF00BFFDE73B68022B03D13B6B0B
:103C3000DB6B012B01D1012300E00023002B0BD112
:103C40004FF0500383F31188BFF36F8FBFF34F8F93
:103C50003B6200BF00BFFDE701F02CF90346002BDB
:103C600002D17B68002B01D1012300E00023002B4F
:103C70000BD14FF0500383F31188BFF36F8FBFF365
:103C80004F8FFB6100BF00BFFDE702F0C5F83B6B43
:103C90009A6B3B6BDB6B9A4202D33B68022B29D1B8
:103CA0003A68B968386B00F00FFAF8623B6B5B6AF0
:103CB000002B10D03B6B2433184600F05BFF03460B
:103CC000002B13D03F4B4FF080521A60BFF34F8F41
:103CD000BFF36F8F0AE0FB6A002B07D0394B4FF020
:103CE00080521A60BFF34F8FBFF36F8F02F0C6F898
:103CF000012363E07B68002B03D102F0BFF80023AF
:103D00005CE07B6B002B06D107F11403184600F032
:103D100095FF01237B6302F0B1F800F007FD02F08C
:103D20007BF83B6B93F844305BB2B3F1FF3F03D1B8
:103D30003B6B002283F844203B6B93F845305BB229
:103D4000B3F1FF3F03D13B6B002283F8452002F023
:103D500095F83A1D07F114031146184600F084FF48
:103D60000346002B24D1386B00F0A6FA0346002B43
:103D700018D03B6B10337A681146184600F0A8FE45
:103D8000386B00F031FA00F0DFFC0346002B7FF4C3
:103D90007CAF0C4B4FF080521A60BFF34F8FBFF3D4
:103DA0006F8F72E7386B00F01FFA00F0CDFC6CE704
:103DB000386B00F019FA00F0C7FC002318463837BA
:103DC000BD4680BD04ED00E080B590B000AFF86066
:103DD000B9607A603B60FB68BB63BB6B002B0BD1A7
:103DE0004FF0500383F31188BFF36F8FBFF34F8FF2
:103DF000BB6200BF00BFFDE7BB68002B03D1BB6BFC
:103E00001B6C002B01D1012300E00023002B0BD100
:103E10004FF0500383F31188BFF36F8FBFF34F8FC1
:103E20007B6200BF00BFFDE73B68022B03D1BB6B89
:103E3000DB6B012B01D1012300E00023002B0BD110
:103E40004FF0500383F31188BFF36F8FBFF34F8F91
:103E50003B6200BF00BFFDE702F0BEF8EFF3118246
:103E60004FF0500383F31188BFF36F8FBFF34F8F71
:103E7000FA61BB61FB697B63BB6B9A6BBB6BDB6BF2
:103E80009A4202D33B68022B2FD1BB6B93F845308B
:103E900087F83330BB6B9B6BFB623A68B968B86BD1
:103EA00000F012F997F93330B3F1FF3F12D1BB6B39
:103EB0005B6A002B16D0BB6B2433184600F05AFE09
:103EC0000346002B0ED07B68002B0BD07B680122B1
:103ED0001A6007E097F833300133DBB25AB2BB6B9C
:103EE00083F845200123FB6301E00023FB637B6B28
:103EF0007B617B6983F3118800BFFB6B18464037F9
:103F0000BD4680BD80B58CB000AFF860B9607A6006
:103F10000023FB62FB68BB62BB6A002B0BD14FF036
:103F2000500383F31188BFF36F8FBFF34F8F3B6252
:103F300000BF00BFFDE7BB68002B03D1BB6A1B6C51
:103F4000002B01D1012300E00023002B0BD14FF007
:103F5000500383F31188BFF36F8FBFF34F8FFB6163
:103F600000BF00BFFDE700F0A5FF0346002B02D114
:103F70007B68002B01D1012300E00023002B0BD133
:103F80004FF0500383F31188BFF36F8FBFF34F8F50
:103F9000BB6100BF00BFFDE701F03EFFBB6A9B6B4A
:103FA0007B627B6A002B1FD0B968B86A00F0F6F814
:103FB0007B6A5A1EBB6A9A63BB6A1B69002B0FD0CF
:103FC000BB6A1033184600F0D5FD0346002B07D01E
:103FD0003C4B4FF080521A60BFF34F8FBFF36F8F8F
:103FE00001F04CFF012369E07B68002B03D101F055
:103FF00045FF002362E0FB6A002B06D107F11003A6
:10400000184600F01BFE0123FB6201F037FF00F0B1
:104010008DFB01F001FFBB6A93F844305BB2B3F152
:10402000FF3F03D1BB6A002283F84420BB6A93F8A8
:1040300045305BB2B3F1FF3F03D1BB6A002283F886
:10404000452001F01BFF3A1D07F1100311461846E9
:1040500000F00AFE0346002B23D1B86A00F016F9DF
:104060000346002B17D0BB6A24337A6811461846E2
:1040700000F02EFDB86A00F0B7F800F065FB0346CB
:10408000002B89D10F4B4FF080521A60BFF34F8F36
:10409000BFF36F8F80E7B86A00F0A6F800F054FB1A
:1040A0007AE7B86A00F0A0F800F04EFBB86A00F0BA
:1040B000EDF80346002B3FF46FAF0023184630376E
:1040C000BD4680BD04ED00E080B586B000AFF8606D
:1040D000B9607A6000237B61FB689B6B3B61FB6886
:1040E0001B6C002B0DD1FB681B68002B4DD1FB68AE
:1040F0009B68184600F0FCFE7861FB6800229A601D
:1041000043E07B68002B19D1FB685868FB681B6C87
:104110001A46B96802F096F9FB685A68FB681B6C8E
:104120001A44FB685A60FB685A68FB689B689A42AD
:104130002BD3FB681A68FB685A6026E0FB68D868D6
:10414000FB681B6C1A46B96802F07CF9FB68DA68F8
:10415000FB681B6C5B421A44FB68DA60FB68DA6838
:10416000FB681B689A4207D2FB689A68FB681B6C65
:104170005B421A44FB68DA607B68022B05D13B691D
:10418000002B02D03B69013B3B613B695A1CFB6839
:104190009A637B6918461837BD4680BD80B582B0EA
:1041A00000AF786039607B681B6C002B18D07B688F
:1041B000DA687B681B6C1A447B68DA607B68DA68B3
:1041C0007B689B689A4203D37B681A687B68DA60D5
:1041D0007B68D9687B681B6C1A46386802F032F934
:1041E00000BF0837BD4680BD80B584B000AF7860A1
:1041F00001F012FE7B6893F84530FB7311E07B6899
:104200005B6A002B12D07B682433184600F0B2FCA6
:104210000346002B01D000F08BFDFB7B013BDBB2A2
:10422000FB7397F90F30002BE9DC00E000BF7B68DF
:10423000FF2283F8452001F021FE01F0EDFD7B68AF
:1042400093F84430BB7311E07B681B69002B12D0DC
:104250007B681033184600F08DFC0346002B01D01C
:1042600000F066FDBB7B013BDBB2BB7397F90E3000
:10427000002BE9DC00E000BF7B68FF2283F84420CC
:1042800001F0FCFD00BF1037BD4680BD80B584B095
:1042900000AF786001F0C0FD7B689B6B002B02D102
:1042A0000123FB6001E00023FB6001F0E7FDFB68F8
:1042B00018461037BD4680BD80B584B000AF786029
:1042C00001F0AAFD7B689A6B7B68DB6B9A4202D196
:1042D0000123FB6001E00023FB6001F0CFFDFB68E0
:1042E00018461037BD4680BD80B485B000AF7860F9
:1042F00039600023FB6014E00F4AFB6852F833304A
:10430000002B0BD10C49FB683A6841F833200A4A6C
:10431000FB68DB0013447A685A6006E0FB680133EF
:10432000FB60FB68072BE7D900BF00BF1437BD4611
:104330005DF8047B704700BFD402002080B586B0D2
:1043400000AFF860B9607A60FB687B6101F064FDE2
:104350007B6993F844305BB2B3F1FF3F03D17B69D3
:10436000002283F844207B6993F845305BB2B3F1B7
:10437000FF3F03D17B69002283F8452001F07EFDD9
:104380007B699B6B002B06D17B6924337A68B96803
:10439000184600F0C3FB7869FFF726FF00BF183707
:1043A000BD4680BD80B58CB004AFF860B9603B609D
:1043B0001346FB80FB889B00184601F00BFA7861DE
:1043C0007B69002B0ED05C2001F004FAF861FB69D8
:1043D000002B03D0FB697A691A6305E0786901F064
:1043E000C7FA01E00023FB61FB69002B13D0FA88B8
:1043F00000230393FB690293FB6A0193BB6A00935A
:104400003B68B968F86800F00EF8F86900F09CF8AD
:104410000123BB6102E04FF0FF33BB61BB6918466B
:104420002037BD4680BD80B588B000AFF860B96068
:104430007A603B603B6B186B7B689B001A46A5213A
:10444000FCF761F83B6B1A6B7B6803F18043013B1F
:104450009B001344BB61BB6923F00703BB61BB69CD
:1044600003F00703002B0BD04FF0500383F31188A8
:10447000BFF36F8FBFF34F8F7B6100BF00BFFDE7BE
:10448000BB68002B1FD00023FB6112E0BA68FB69F8
:10449000134419783A6BFB69134434330A461A7093
:1044A000BA68FB6913441B78002B06D0FB69013303
:1044B000FB61FB690F2BE9D900E000BF3B6B0022D9
:1044C00083F8432003E03B6B002283F83420BB6A6F
:1044D000072B01D90723BB623B6BBA6ADA623B6BDD
:1044E000BA6ADA643B6B00221A653B6B04331846E8
:1044F000FFF710FA3B6B18331846FFF70BFA3B6BCC
:104500003A6B1A61BB6AC3F108023B6B9A613B6B61
:104510003A6B5A623B6B00225A653B6B002283F870
:1045200058203A68F968B86901F042FB02463B6BD3
:104530001A60FB6A002B02D0FB6A3A6B1A6000BF5C
:104540002037BD4680BD000080B582B000AF7860E6
:1045500001F062FC2C4B1B6801332B4A13602B4B80
:104560001B68002B09D1294A7B681360264B1B6806
:10457000012B10D100F000FC0DE0254B1B68002B37
:1045800009D1224B1B68DA6A7B68DB6A9A4202D83F
:104590001E4A7B6813601F4B1B6801331D4A136062
:1045A0001C4B1A687B685A647B68DB6A01229A405C
:1045B000194B1B681343184A13607B68DA6A134669
:1045C0009B0013449B00154A1A447B680433194628
:1045D0001046FFF7ACF901F051FC0D4B1B68002BA6
:1045E0000ED00A4B1B68DA6A7B68DB6A9A4207D2F4
:1045F0000B4B4FF080521A60BFF34F8FBFF36F8F9A
:1046000000BF0837BD4680BD2804002014030020E9
:10461000340400204404002030040020180300204B
:1046200004ED00E080B584B000AF78600023FB604B
:104630007B68002B18D0144B1B68002B0BD04FF05D
:10464000500383F31188BFF36F8FBFF34F8FBB60AD
:1046500000BF00BFFDE700F069F80021786800F0B6
:10466000CFFC00F071F8F860FB68002B07D1074B16
:104670004FF080521A60BFF34F8FBFF36F8F00BFB0
:104680001037BD4680BD00BF5004002004ED00E09F
:1046900080B586B002AF1F4B019300230093002327
:1046A00080221D491D48FFF77DFEF860FB68012B45
:1046B00002D100F00BFDF860FB68012B16D14FF022
:1046C000500383F31188BFF36F8FBFF34F8FBB602D
:1046D00000BF134B4FF0FF321A60124B01221A60D9
:1046E000114B00221A6001F0F3FA0FE0FB68B3F1FE
:1046F000FF3F0BD14FF0500383F31188BFF36F8F4F
:10470000BFF34F8F7B6000BF00BFFDE700BF1037D6
:10471000BD4680BD4C040020EC6D0008494D0008EA
:1047200048040020340400202C04002080B400AF92
:10473000044B1B680133034A136000BFBD465DF89C
:10474000047B70475004002080B584B000AF002384
:10475000FB600023BB60424B1B68002B0BD14FF06A
:10476000500383F31188BFF36F8FBFF34F8F3B600C
:1047700000BF00BFFDE701F04FFB394B1B68013B59
:10478000374A1360364B1B68002B61D1354B1B68D1
:10479000002B5DD02EE0344BDB68DB68FB60FB68F0
:1047A00018331846FFF720F9FB6804331846FFF763
:1047B0001BF9FB68DB6A01229A402C4B1B681343F0
:1047C0002A4A1360FB68DA6A13469B0013449B0075
:1047D000274A1A44FB68043319461046FFF7A7F826
:1047E000FB68DA6A234B1B68DB6A9A4202D3224BCE
:1047F00001221A601C4B1B68002BCCD1FB68002BDC
:1048000001D000F037FB1D4B1B687B607B68002BE1
:1048100010D000F047F80346002B02D0164B0122BF
:104820001A607B68013B7B607B68002BF1D1134BE6
:1048300000221A60104B1B68002B09D00123BB60BB
:104840000F4B4FF080521A60BFF34F8FBFF36F8F43
:1048500001F014FBBB6818461037BD4680BD00BF91
:104860005004002028040020E80300203004002029
:1048700018030020140300203C040020380400200A
:1048800004ED00E080B483B000AF054B1B687B6093
:104890007B6818460C37BD465DF8047B704700BF47
:1048A0002C04002080B586B000AF00237B614F4B05
:1048B0001B68002B40F08F804D4B1B6801333B6120
:1048C0004B4A3B6913603B69002B21D1494B1B6864
:1048D0001B68002B0BD04FF0500383F31188BFF3FC
:1048E0006F8FBFF34F8F3B6000BF00BFFDE7414BB1
:1048F0001B68FB60404B1B683E4A13603E4AFB68E6
:1049000013603E4B1B6801333C4A136000F0B2FA5F
:104910003B4B1B683A699A4248D3364B1B681B686D
:10492000002B04D1364B4FF0FF321A603EE0314B82
:104930001B68DB68DB68BB60BB685B687B603A69EF
:104940007B689A4203D22E4A7B6813602EE0BB68D4
:1049500004331846FFF748F8BB689B6A002B04D065
:10496000BB6818331846FFF73FF8BB68DB6A0122C3
:104970009A40244B1B681343224A1360BB68DA6ACF
:1049800013469B0013449B001F4A1A44BB68043320
:1049900019461046FEF7CBFFBB68DA6A1B4B1B6853
:1049A000DB6A9A42B9D301237B61B6E7174B1B68D8
:1049B000DA6A154913469B0013449B000B441B689D
:1049C000012B01D901237B61114B1B68002B07D000
:1049D00001237B6104E00F4B1B6801330D4A136018
:1049E0007B6918461837BD4680BD00BF50040020C3
:1049F0002C040020E0030020E403002040040020F9
:104A00004804002030040020180300201403002074
:104A10003C0400203804002080B487B000AF274B4E
:104A20001B68002B03D0264B01221A6040E0244B68
:104A300000221A60234B1B68FB60FB68B3FA83F308
:104A4000FB72FB7AC3F11F037B611F497A6913462E
:104A50009B0013449B000B441B68002B0BD14FF0B1
:104A6000500383F31188BFF36F8FBFF34F8F7B60C9
:104A700000BF00BFFDE77A6913469B0013449B000B
:104A8000114A13443B613B695B685A683B695A6051
:104A90003B695A683B6908339A4204D13B695B68B9
:104AA0005A683B695A603B695B68DB68074A136078
:104AB00000BF1C37BD465DF8047B704750040020E2
:104AC0003C040020300400201803002014030020C0
:104AD00080B584B000AF786039607B68002B0BD163
:104AE0004FF0500383F31188BFF36F8FBFF34F8FE5
:104AF000FB6000BF00BFFDE7074B1B68183319467A
:104B00007868FEF738FF0121386800F079FA00BFB5
:104B10001037BD4680BD00BF1403002080B586B0AD
:104B200000AFF860B9607A60FB68002B0BD14FF0E2
:104B3000500383F31188BFF36F8FBFF34F8F7B61F7
:104B400000BF00BFFDE70A4B1B6818331946F86821
:104B5000FEF7EDFE7B68002B02D04FF0FF33BB6009
:104B60007968B86800F04CFA00BF1837BD4680BDC0
:104B70001403002080B586B000AF78607B68DB68E6
:104B8000DB683B613B69002B0BD14FF0500383F393
:104B90001188BFF36F8FBFF34F8FFB6000BF00BF63
:104BA000FDE73B6918331846FEF71EFF1D4B1B68D7
:104BB000002B1CD13B6904331846FEF715FF3B69F7
:104BC000DB6A01229A40184B1B681343164A136094
:104BD0003B69DA6A13469B0013449B00134A1A444C
:104BE0003B69043319461046FEF7A1FE05E03B6918
:104BF000183319460E48FEF79AFE3B69DA6A0D4BE8
:104C00001B68DB6A9A4205D901237B610A4B0122AA
:104C10001A6001E000237B617B6918461837BD46A6
:104C200080BD00BF50040020300400201803002085
:104C3000E8030020140300203C04002080B483B06B
:104C400000AF7860064B1A687B681A60054B1A68DB
:104C50007B685A6000BF0C37BD465DF8047B704727
:104C6000400400202C04002080B588B000AF78609C
:104C700039607B68002B0BD14FF0500383F3118810
:104C8000BFF36F8FBFF34F8F3B6100BF00BFFDE7E6
:104C90003B68002B0BD14FF0500383F31188BFF317
:104CA0006F8FBFF34F8FFB6000BF00BFFDE701F0C8
:104CB000B3F81D4B1B68BB617B685B68BA69D31A8C
:104CC0007B613B681B68B3F1FF3F02D10023FB61AE
:104CD00023E07B681A68154B1B689A4207D07B68F3
:104CE0005B68BA699A4202D30123FB6115E03B6815
:104CF0001B687A699A420BD23B681A687B69D21AA0
:104D00003B681A607868FFF799FF0023FB6104E0B5
:104D10003B6800221A600123FB6101F0AFF8FB69D8
:104D200018462037BD4680BD2C04002040040020DA
:104D300080B400AF034B01221A6000BFBD465DF88E
:104D4000047B70473C04002080B582B000AF7860DF
:104D500000F052F8064B1B68012BF9D9054B4FF0B8
:104D600080521A60BFF34F8FBFF36F8FF0E700BF21
:104D70001803002004ED00E080B582B000AF0023EE
:104D80007B600CE07A6813469B0013449B00124A38
:104D900013441846FEF79EFD7B6801337B607B68F9
:104DA000072BEFD90D48FEF795FD0D48FEF792FD54
:104DB0000C48FEF78FFD0C48FEF78CFD0B48FEF704
:104DC00089FD0B4B054A1A600A4B054A1A6000BF61
:104DD0000837BD4680BD00BF18030020B80300207F
:104DE000CC030020E8030020FC0300201404002072
:104DF000E0030020E403002080B582B000AF19E09A
:104E000001F00AF8104BDB68DB687B607B680433D9
:104E10001846FEF7E9FD0D4B1B68013B0B4A13607A
:104E20000B4B1B68013B0A4A136001F027F87868B6
:104E300000F010F8064B1B68002BE1D100BF00BF4B
:104E40000837BD4680BD00BFFC03002028040020B9
:104E50001004002080B582B000AF78607B681B6BC7
:104E6000184600F085FD786800F082FD00BF083725
:104E7000BD4680BD80B483B000AF0C4B1B681B687F
:104E8000002B04D10A4B4FF0FF321A6008E0074BA9
:104E90001B68DB68DB687B607B685B68044A1360C7
:104EA00000BF0C37BD465DF8047B7047E00300206F
:104EB0004804002080B483B000AF0B4B1B68002B6C
:104EC00002D101237B6008E0084B1B68002B02D154
:104ED00002237B6001E000237B607B6818460C376F
:104EE000BD465DF8047B7047340400205004002068
:104EF00080B586B000AF78607B683B6100237B6142
:104F00007B68002B70D03B4B1B683A699A420BD0F0
:104F10004FF0500383F31188BFF36F8FBFF34F8FB0
:104F2000FB6000BF00BFFDE73B691B6D002B0BD191
:104F30004FF0500383F31188BFF36F8FBFF34F8F90
:104F4000BB6000BF00BFFDE73B691B6D5A1E3B699C
:104F50001A653B69DA6A3B69DB6C9A4244D03B696B
:104F60001B6D002B40D13B6904331846FEF73CFD16
:104F70000346002B15D13B69DA6A1F4913469B0093
:104F800013449B000B441B68002B0AD13B69DB6A6E
:104F9000012202FA03F3DA43184B1B681340174A45
:104FA00013603B69DA6C3B69DA623B69DB6AC3F127
:104FB00008023B699A613B69DB6A01229A400F4B08
:104FC0001B6813430D4A13603B69DA6A13469B0062
:104FD00013449B00084A1A443B690433194610469F
:104FE000FEF7A5FC01237B617B6918461837BD4697
:104FF00080BD00BF140300201803002030040020EF
:1050000080B584B000AF78603960294B1B68FB60C5
:10501000284B1B6804331846FEF7E6FC0346002BBA
:105020000BD1244B1B68DB6A012202FA03F3DA433B
:10503000214B1B681340204A13607B68B3F1FF3F8C
:105040000AD13B68002B07D01A4B1B680433194662
:105050001A48FEF76CFC26E0FA687B681344BB60D4
:10506000144B1B68BA685A60BA68FB689A4209D246
:10507000134B1A680F4B1B68043319461046FEF792
:105080007AFC10E00F4B1A680A4B1B680433194670
:105090001046FEF770FC0C4B1B68BA689A4202D2AD
:1050A000094ABB68136000BF1037BD4680BD00BF12
:1050B0002C040020140300203004002014040020DD
:1050C000E4030020E00300204804002080B584B001
:1050D00002AF00237B6000F0E1FA124B1B68002B4B
:1050E0000BD0114B01930223009300234FF48072E5
:1050F0000E490F48FFF756F978607B68002B0BD1FB
:105100004FF0500383F31188BFF36F8FBFF34F8FBE
:105110003B6000BF00BFFDE77B6818460837BD460F
:1051200080BD00BF8404002088040020F46D0008C6
:105130006D52000880B58AB000AFF860B9607A603F
:105140003B6000237B62FB68002B0BD14FF05003C8
:1051500083F31188BFF36F8FBFF34F8F3B6200BFA4
:1051600000BFFDE7194B1B68002B2AD0BB687B6191
:105170007B68BB61FB68FB61BB68052B18DCFFF734
:1051800099FE0346022B09D1104B186807F1140150
:1051900000233A6BFEF716FD786212E00B4B18689D
:1051A00007F1140100230022FEF70CFD786208E0ED
:1051B000064B186807F1140100233A68FEF704FE55
:1051C00078627B6A18462837BD4680BD840400207B
:1051D00080B588B002AF78603960234B1B68DB680C
:1051E000DB687B617B6904331846FEF7FDFB7B6956
:1051F00093F8283003F00403002B23D07B699A69CD
:105200007B68D1187B683A68786900F0D5F8034666
:10521000002B20D00023009300237A6800217869B6
:10522000FFF788FF38613B69002B14D14FF0500322
:1052300083F31188BFF36F8FBFF34F8FFB6000BF05
:1052400000BFFDE77B6993F8283023F00103DAB251
:105250007B6983F828207B691B6A7869984700BFBF
:105260001837BD4680BD00BF7C04002080B584B0E7
:1052700000AF786007F10803184600F059F8F860AD
:10528000BB681946F86800F005F800F0D7F800BFD1
:10529000F0E7000080B584B000AF78603960FFF7B8
:1052A00045FA07F10803184600F066F8F860BB6895
:1052B000002B30D13B68002B0AD17A68FB689A42F8
:1052C00006D8FFF741FAF9687868FFF781FF24E014
:1052D0003B68002B08D0134B1B681B68002B01D1C7
:1052E000012300E000233B600F4B18687A68FB68DD
:1052F000D31A3A681946FFF721F8FFF725FA034653
:10530000002B0AD1094B4FF080521A60BFF34F8F28
:10531000BFF36F8F01E0FFF717FA00BF1037BD46EC
:1053200080BD00BF800400208404002004ED00E064
:1053300080B485B000AF78600E4B1B681B68002BF3
:1053400001D1012200E000227B681A607B681B68A3
:10535000002B05D1074B1B68DB681B68FB6001E075
:105360000023FB60FB6818461437BD465DF8047BDC
:10537000704700BF7C04002080B584B000AF786027
:10538000FFF780FAF8600B4B1B68FA689A4205D267
:1053900000F01EF97B6801221A6002E07B6800229F
:1053A0001A60044AFB681360FB6818461037BD4654
:1053B00080BD00BF8C04002080B586B000AFF860CF
:1053C000B9607A603B6000237B61FB68BA685A6011
:1053D000FB68FA681A61BA687B689A4212D87A68E0
:1053E0003B68D21AFB689B699A4202D301237B6116
:1053F0001BE0104B1A68FB68043319461046FEF791
:10540000BAFA12E07A683B689A4206D2BA683B68F8
:105410009A4202D301237B6107E0074B1A68FB68BD
:10542000043319461046FEF7A6FA7B69184618376A
:10543000BD4680BD800400207C04002080B58CB077
:1054400002AFB2E0BB68002BC0F2AF803B697B6269
:105450007B6A5B69002B04D07B6A04331846FEF735
:10546000C3FA3B1D1846FFF787FF3862BB68092B5C
:1054700000F2988001A252F823F000BFA554000862
:10548000A5540008A55400081B5500082F55000816
:105490007B550008A5540008A55400081B550008BA
:1054A0002F5500087B6A93F8283043F00103DAB2E5
:1054B0007B6A83F82820FA687B6A9B69D118FB68AD
:1054C0003A6A786AFFF778FF0346002B6CD07B6A54
:1054D0001B6A786A98477B6A93F8283003F00403C4
:1054E000002B61D0FA687B6A9B691A440023009301
:1054F00000230021786AFFF71DFEF861FB69002B8D
:1055000052D14FF0500383F31188BFF36F8FBFF375
:105510004F8FBB6100BF00BFFDE77B6A93F8283067
:1055200023F00103DAB27B6A83F828203DE07B6A2E
:1055300093F8283043F00103DAB27B6A83F828201D
:10554000FA687B6A9A617B6A9B69002B0BD14FF0EA
:10555000500383F31188BFF36F8FBFF34F8F7B61CD
:1055600000BF00BFFDE77B6A9A693B6AD1183B6ABE
:105570003A6A786AFFF720FF17E07B6A93F82830D1
:1055800003F00203002B03D1786A00F0F1F90CE07C
:105590007B6A93F8283023F00103DAB27B6A83F840
:1055A000282002E000BF00E000BF084B1B6807F1A5
:1055B000080100221846FEF7A5FC0346002B7FF4E5
:1055C00041AF00BF00BF2837BD4680BD8404002026
:1055D00080B588B002AF49E02E4B1B68DB681B68C2
:1055E0003B612C4B1B68DB68DB68FB60FB680433AA
:1055F0001846FEF7F9F9FB681B6AF8689847FB68DC
:1056000093F8283003F00403002B2FD0FB689B692C
:105610003A691344BB60BA683B699A420ED9FB6889
:10562000BA685A60FB68FA681A611A4B1A68FB6814
:10563000043319461046FEF79EF917E00023009345
:1056400000233A690021F868FFF774FD78607B68F1
:10565000002B0BD14FF0500383F31188BFF36F8FF2
:10566000BFF34F8F3B6000BF00BFFDE7094B1B68D6
:105670001B68002BB0D1074B1B687B61064B1B6876
:10568000044A1360044A7B69136000BF1837BD46A3
:1056900080BD00BF7C0400208004002080B500AFE6
:1056A00000F0BAFB124B1B68002B1DD11148FEF70E
:1056B00011F91148FEF70EF9104B0E4A1A60104B03
:1056C0000D4A1A6000220C210A20FEF721FA034637
:1056D000074A1360064B1B68002B05D0044B1B6860
:1056E00008491846FEF700FE00F0C8FB00BF80BD69
:1056F0008404002054040020680400207C0400205E
:1057000080040020FC6D000880B485B000AF034623
:10571000FB800023FB60B7F90630842B05D0B7F976
:105720000620FB6813440333FB60FB6818461437FC
:10573000BD465DF8047B704780B500AFFEF7A8FF5B
:105740000023184680BDF0B587B002AF786039609D
:105750007B685C687B681D687B681B699EB27B68A0
:10576000B3F908301846FFF7CFFF024607F10C03E4
:10577000019300923B68324629462046FEF712FE0E
:105780000346012B01D0002300E0FB6818461437C4
:10579000BD46F0BD80B584B000AF78607B68FB602B
:1057A000FB68002B01D0FB6800E001231846FEF7E0
:1057B00039FF002318461037BD4680BD80B500AFC5
:1057C000FFF778FB0346012B01D000F0B5FB00BFCB
:1057D00080BD000080B58AB000AF78600023FB6117
:1057E000FEF7A4FF5C4B1B68002B01D100F024F9ED
:1057F0005A4B1A687B681340002B40F095807B68F9
:10580000002B1ED008227B6813447B607B6803F06A
:105810000703002B15D07B6823F0070308337B6058
:105820007B6803F00703002B0BD04FF0500383F38A
:105830001188BFF36F8FBFF34F8F7B6100BF00BF35
:10584000FDE77B68002B6FD0454B1B687A689A4256
:105850006AD8444B3B62434B1B687B6204E07B6A23
:105860003B627B6A1B687B627B6A5B687A689A42F0
:1058700003D97B6A1B68002BF1D1374B1B687A6A0E
:105880009A4251D03B6A1B6808221344FB617B6A31
:105890001A683B6A1A607B6A5A687B68D21A0823C6
:1058A0005B009A4220D97A6A7B681344BB61BB696A
:1058B00003F00703002B0BD04FF0500383F3118844
:1058C000BFF36F8FBFF34F8F3B6100BF00BFFDE79A
:1058D0007B6A5A687B68D21ABB695A607B6A7A68AD
:1058E0005A60B86900F00AF91D4B1A687B6A5B6858
:1058F000D31A1B4A13601A4B1A681B4B1B689A4237
:1059000003D2174B1B68184A13607B6A5A68134B03
:105910001B681A437B6A5A607B6A00221A60134B29
:105920001B680133114A1360FEF70EFFFB6903F099
:105930000703002B0BD04FF0500383F31188BFF304
:105940006F8FBFF34F8FFB6000BF00BFFDE7FB69A8
:1059500018462837BD4680BD98240020AC2400207E
:105960009C24002090240020A0240020A4240020B7
:1059700080B586B000AF78607B687B617B68002B68
:105980004FD008235B427A6913447B617B693B619A
:105990003B695A68254B1B681340002B0BD14FF015
:1059A000500383F31188BFF36F8FBFF34F8FFB60FA
:1059B00000BF00BFFDE73B691B68002B0BD04FF019
:1059C000500383F31188BFF36F8FBFF34F8FBB601A
:1059D00000BF00BFFDE73B695A68144B1B681340CA
:1059E000002B1ED03B691B68002B1AD13B695A68FB
:1059F0000E4B1B68DB431A403B695A60FEF796FE6C
:105A00003B695A680A4B1B681344094A136038699A
:105A100000F074F8074B1B680133064A1360FEF769
:105A200093FE00BF1837BD4680BD00BFAC240020E8
:105A30009C240020A824002080B485B000AF4FF43F
:105A40000053BB60274BFB60FB6803F00703002B90
:105A50000CD0FB680733FB60FB6823F00703FB6097
:105A6000BA68FB68D31A1F4A1344BB60FB687B60AB
:105A70001D4A7B6813601C4B00225A607B68BA6821
:105A80001344FB600822FB689B1AFB60FB6823F051
:105A90000703FB60FB68154A1360144B1B68002268
:105AA0005A60124B1B6800221A607B683B603B689F
:105AB000FA68D21A3B685A600C4B1A683B681A6045
:105AC0003B685B680A4A13603B685B68094A13607D
:105AD000094B4FF000421A6000BF1437BD465DF815
